:020000040800F2
:1000000068620020E101000893270008E11F000852
:1000100091270008330300087B3600080000000029
:10002000000000000000000000000000490100087E
:1000300035030008000000008D010008BD310008F4
:10004000FB010008FB010008FB010008FB010008A0
:10005000FB010008FB010008370300083D0300080E
:1000600043030008FB010008FB010008FB01000836
:10007000FB010008FB010008FB010008FB01000870
:10008000FB010008FB010008FB010008FB01000860
:10009000FB010008FB010008FB010008FB01000850
:1000A000FB010008FB010008FB010008FB01000840
:1000B000FB010008FB0100086D320008FB0100088D
:1000C000FB010008FB010008FB010008FB01000820
:1000D000FB010008FB010008FB010008FB01000810
:1000E000FB01000895270008FB010008FB01000840
:1000F000FB010008FB010008FB010008FB010008F0
:10010000FB010008FB010008FB010008FB010008DF
:10011000FB010008FB010008FB010008FB010008CF
:10012000FB010008FB010008FB010008FB010008BF
:10013000DFF810D000F0DCF800480047F13B000881
:10014000AFF3008068620020224B19680868B0E8AD
:10015000F00F80F30988BFF36F8F4FF0000080F33A
:1001600011884EF00D0E7047000000000648006830
:10017000006880F3088862B661B6BFF34F8FBFF3A3
:100180006F8F00DF00BF00BF08ED00E0EFF30980D4
:10019000BFF36F8F0F4B1A6820E9F00F106008B59E
:1001A0004FF0500080F31188BFF34F8FBFF36F8F74
:1001B00004F0EAFE4FF0000080F31188BDE808402B
:1001C00019680868B0E8F00F80F30988BFF36F8FF3
:1001D000704700BF30000020EFF30580704700003B
:1001E0000648804706480047FEE7FEE7FEE7FEE7D1
:1001F000FEE7FEE7FEE7FEE7FEE7FEE769320008FE
:1002000031010008202A04DB203A21FA02F0002103
:10021000704721FA02F3D040C2F120029140084316
:100220001946704740EA01039B0703D009E008C95B
:10023000121F08C0042AFAD203E011F8013B00F8AB
:10024000013B521EF9D27047D2B201E000F8012BF7
:10025000491EFBD270470022F6E710B513460A4646
:1002600004461946FFF7F0FF204610BD421C10F867
:10027000011B0029FBD1801A7047034611F8012B9E
:1002800000F8012B002AF9D1184670472DE9F05FDC
:100290000546002092469B468846064681464024F5
:1002A0001BE02846414647462246FFF7ABFF534630
:1002B0005A46C01A914110D311461846224600F002
:1002C00029F82D1A67EB01084F462246012000212C
:1002D00000F020F817EB00094E41201EA4F10104A4
:1002E000DFDC484631462A464346BDE8F09F000021
:1002F000064C074D06E0E06840F0010394E8070073
:1003000098471034AC42F6D3FFF716FFA0980008C8
:10031000C0980008202A04DB203A00FA02F10020ED
:1003200070479140C2F1200320FA03F31943904033
:100330007047FEE77047012000F03AB8022000F055
:1003400037B8042000F034B872B6FEE770B5044642
:1003500000F03CF90546601C02D0044800780444D3
:1003600000F034F9401BA042FAD370BD20000020F9
:1003700070B50B4E012810D100F028F9D6E90621FE
:1003800000250446821A65EB01006421511A70F1C0
:10039000000004D303A003F071F9C6E9064570BD5F
:1003A00000000020707265737365640D0A00000020
:1003B000044910B50A68024202D00860FFF7D8FF6E
:1003C00010BD0000140401402DE9F84FDFF8C8917A
:1003D0000024A9F1040B23460F2709F1040AABF10D
:1003E000040ED1E00125A54006EA0502AA4276D115
:1003F000DFF8A8C14E68A6EB0C0866452BD00DDCD3
:10040000032E34D005DC36B3012E19D0022E2FD1A5
:100410001BE0112E16D0122E2AD119E0B8F5881F34
:1004200019D006DCB8F5803F15D0B8F5801F1FD174
:1004300011E0B8F5001F0ED0B8F5041F18D10AE07E
:10044000CB6815E0CB681B1D12E0CB6808330FE0CA
:10045000CB680C330CE08B682BB1012B4FF00803F9
:1004600003D0456104E0042302E0056100E00023BD
:10047000FF2A01D8064601E000F104064FEA840590
:1004800001D9A5F12005D6F8008007FA05FC28EA75
:100490000C0803FA05F548EA0508C6F800804D681F
:1004A000ED0070D53E4DAE6946F00106AE61AD6916
:1004B00024F0030605F0010500953A4D06EB050C06
:1004C000DCF80850A607360F07FA06F825EA0805F3
:1004D000DFF8D480404503D14FF0000825E052E01A
:1004E000DFF8C880404502D14FF001081DE0DFF879
:1004F000C080404502D14FF0020816E0DFF8B4801A
:10050000404502D14FF003080FE0DFF8AC804045D2
:1005100002D14FF0040808E0DFF8A080404502D186
:100520004FF0050801E04FF0060808FA06F848EA1F
:100530000508CCF808804D68D9F80060ED024D46FA
:1005400001D5164300E096432E604D68DAF800604E
:10055000AD02554601D5164300E096432E604D6826
:10056000DBF80060AD035D4601D5164300E096431D
:100570002E604D68DEF80060ED03754601D5164328
:1005800000E096432E60641C0A681646E2407FF441
:1005900029AFBDE8F88F00000804014000001110E9
:1005A000001002400000014000080140000C014022
:1005B000001001400014014000180140001C0140DF
:1005C0000AB1016170470904FBE700000148806837
:1005D000704700002000002070B5040025D094F87A
:1005E0003D00002520B984F83C50204600F050F929
:1005F000242084F83D002068016821F00101016099
:100600002068016841F4004101602068016821F41C
:100610000041016000F0C4FB4D4A6168914201D87D
:100620004C4900E04C49884201D2012070BD4B4941
:100630002368B0FBF1F15E6826F03F060E435E6072
:100640006368934206D94FF4967359434FF47A7313
:10065000B1FBF3F12368491C1E6A26F03F063143C3
:1006600019626168914210D84900401EB0FBF1F256
:10067000521CC2F30B02042A01D2042022E0B0FB78
:10068000F1F0401CC0F30B001CE0A268F2B301EBD8
:10069000C10303EB0116431EB3FBF6F35B1C43F4EB
:1006A00080431B0549D092B301EBC10202EB01115B
:1006B000401EB0FBF1F0401CC0F30B0040F4804042
:1006C00040F400402168CA694CF6FF739A43104316
:1006D000C861D4E9071001432068026822F0C00213
:1006E00011430160D4E9030101432068826848F2A4
:1006F000FF339A4311438160D4E90501084321681F
:10070000CA6822F0FF021043C86001E00EE016E064
:100710002068016841F0010101602564202084F80F
:100720003D00256384F83E50002070BD01EB41067A
:10073000431EB3FBF6F35B1CB3E70120C2E701EBFA
:100740004101401EB0FBF1F0401CC0F30B00B7E7C5
:10075000A086010080841E0000093D0040420F0079
:100760002DE9FF4F83B09A46DDE911979346044681
:10077000DDF84080FFF72AFF054694F83D00202869
:100780007FD11923012240492046009501F0C0FC89
:10079000002876D194F83C00012872D0012084F81A
:1007A0003C0020680168C90703D1016841F00101DC
:1007B00001602068016821F400610160212084F853
:1007C0003D00402084F83E0000262664C4F82480C2
:1007D000A4F82A90608D20852C48E062CDE9007550
:1007E00053465A462046049901F012FC70B930E095
:1007F0002A463946204601F031FD58B1206C0428C4
:1008000004D12068016841F400710160012007B043
:10081000BDE8F08F606A216800780861606A401C5A
:100820006062218D491E89B22185628D521E6285CA
:1008300022685369DB435B070BD469B10078106110
:10084000606A401C6062208D401E2085608D401EC5
:100850006085208D0028CBD12A463946204601F0FC
:100860002BFC0028CAD154F83D0B016841F40071FB
:100870000160202004F81E09E67766770020C6E7AD
:10088000FFE70220C3E70000020010000000FFFFA6
:1008900010B586B00021009101910291039100688A
:1008A000104988421BD1104CA06940F00800A0619B
:1008B000A069694600F0080004904FF44060009081
:1008C00012200190032003900848FFF77DFDE069A6
:1008D00040F48000E061E06900F48000049006B01C
:1008E00010BD00000058004000100240000C014004
:1008F000024881680278114481607047200000201E
:10090000074810B5016841F010010160032000F0B4
:10091000A7F8022000F006F800F050F8002010BD03
:100920000020024030B505461F4887B0C16941F03C
:100930000401C161C06906A900F00400009001A88B
:1009400000F00EFA0498B0B100F02AFA40001749FE
:10095000174AB0FBF1F11748491E0260416040F2AE
:10096000E7320021C0E903218160816101F00CF8C8
:10097000040003D015E000F013FAE8E70D4801F099
:1009800045F804000DD11E2000F03CF8102D07D2D0
:10099000002229461E2000F043F80748056000E0C9
:1009A000012407B0204630BD0010024040420F0035
:1009B000000800400C0A0020240000200F4808B561
:1009C000816941F001018161816901F001010091BA
:1009D000C16941F08051C161C069002200F08050BE
:1009E00000900F21901E00F01BF80548416821F08F
:1009F000E06141F00071416008BD0000001002405C
:100A000000000140002809DB00F01F020121914095
:100A10004009800000F1E020C0F80011704700009C
:100A2000F0B40E4B1B680C46C3F30223C3F1070559
:100A3000042D00D90425191D072901D2002300E047
:100A4000DB1E012606FA05F1491E214099409E4011
:100A5000761E16403143F0BC02F034BE0CED00E0CF
:100A6000064900F0070208684FF6FF03184040EA05
:100A70000220034A10430860704700000CED00E0BC
:100A80000000FA05014901200862704700000E428B
:100A900010B501460020284C04292FD00BDC012979
:100AA00030D0022929D100F08BF96168C1F381317E
:100AB000491C49001FE0082920D010291DD1616878
:100AC0002268D20119D51D48C1F38342C903805C55
:100AD0000AD56168194AC1F34041921E515C184A17
:100AE000B2FBF1F1484301E016494843616849020D
:100AF00003D440000321B0FBF1F010BDBDE810406D
:100B000000F06EB9226AC2F30121012903D19207D4
:100B100001D5C80310BD022905D1626A920702D52A
:100B200049F6404010BD0329FCD121688903F9D55D
:100B30004FF2244010BD0000001002406086000803
:100B400000127A0000093D002DE9F84305460078BF
:100B5000354CC00754D0E0690026C00008D4E069D5
:100B600040F08050E061E069012600F08050009084
:100B70002E480168C90512D40168804641F480718D
:100B80000160FFF723FD074605E000BFFFF71EFDEC
:100B9000C01B642823D8D8F80000C005F6D5206A09
:100BA00010F4407021D0A98801F4407181421CD01A
:100BB000206A1F49012220F440700A6000220A6066
:100BC0002062C00711D0FFF701FD074641F28838C7
:100BD00008E000BFFFF7FAFCC11B414502D9032022
:100BE000BDE8F883206A8007F4D5206A696820F49C
:100BF0004070084320621EB1E06920F08050E0613F
:100C00002878800705D56068A96820F4404008432B
:100C100060602878C00605D56068696920F48000A6
:100C2000084360600020DBE70010024000700040D5
:100C3000400442422DE9F0470F46050061D0434E83
:100C4000306800F00700B84209D2306820F0070091
:100C500038433060306800F00700B84251D128684E
:100C60003B4C810712D5400703D5606840F4E06033
:100C700060602878000703D5606840F460506060C9
:100C80006068A96820F0F000084360602878C00719
:100C900028D06868012810D02168022810D0890760
:100CA00000292EDA616821F0030101436160FFF73A
:100CB0008DFC804641F288390DE021688903EFE719
:100CC0008901EDE7FFF782FCA0EB0801494502D955
:100CD0000320BDE8F0876068696800F00C00B0EBA5
:100CE000810FEFD1306800F00700B8420BD93068AF
:100CF00020F0070038433060306800F00700B84249
:100D000001D00120E5E72878400705D56068E9684B
:100D100020F4E060084360602878000706D560682A
:100D2000296920F4605040EAC100606000F058F882
:100D30006168084AC1F30311515CC8400649086064
:100D400006480068FFF7EEFD0020C2E700200240E1
:100D500000100240708600082C00002024000020B3
:100D60000F2202600C4A536803F003034360536888
:100D700003F0F0038360536803F4E063C3605268D8
:100D80004FF4E06303EAD20202610448006800F015
:100D90000700086070470000001002400020024079
:100DA0000448054900684968044AC1F30221515CBE
:100DB000C84070472C0000200010024080860008C8
:100DC0000448054900684968044AC1F3C221515CDE
:100DD000C84070472C0000200010024080860008A8
:100DE0000E4A51680E4801F00C03042B11D0082B59
:100DF0000FD10C48C1F38343C903C05C0AD55168C5
:100E0000084AC1F34041921E515C054A5043B0FB71
:100E1000F1F0704704494843704700000010024059
:100E200000127A004E86000800093D002DE9F84FB7
:100E3000040070D02078C04DC00749D06868C0F366
:100E40008100012807D06868C0F38100022809D119
:100E50006868C00306D52868800339D56068002813
:100E6000E7D035E06068B0F5803F0BD010B1B0F549
:100E7000A02F11D0286820F480302860286820F442
:100E8000802002E0286840F480302860606890B1DB
:100E9000FFF79CFB06460AE0286840F480202860A3
:100EA000F0E700BFFFF792FB801B642873D8286827
:100EB0008003F7D50CE0FFF789FB064605E000BF8D
:100EC000FFF784FB801B6428F0D828688003F7D4E0
:100ED00020789A4E80074FF001094FF0000839D56D
:100EE000686810F00C0F07D06868C0F38100022812
:100EF00009D16868C00306D42868800714D5206922
:100F0000012808D110E02069B0B1C6F80090FFF7C1
:100F10005DFB074605E00AE1FFF758FBC01B02280E
:100F2000C4D828688007F7D52868616920F0F800E0
:100F300040EAC10028600DE0C6F80080FFF746FBDC
:100F4000074604E0FFF742FBC01B022823D82868AD
:100F50008007F7D4207800072CD57948A169D9B14A
:100F6000C0F80090FFF732FB074604E0FFF72EFBC6
:100F7000C01B02280FD8686A8007F7D571484FF464
:100F8000FA510068B0FBF1F0009000BF0098411EDC
:100F90000091FAD20EE080E0C0F80080FFF716FB67
:100FA000074604E0FFF712FBC01B022875D8686AE9
:100FB0008007F7D42078400760D5E8690027C00093
:100FC00008D4E86940F08050E861E869012700F042
:100FD000805000905C480168C90513D401688346BD
:100FE00041F480710160FFF7F1FA824606E000BF2C
:100FF000FFF7ECFAA0EB0A0064284ED8DBF80000FB
:10100000C005F5D5E06801280AD008B1052813D03D
:10101000286A20F001002862286A20F0040002E01B
:10102000286A40F001002862E06841F2883B98B1EC
:10103000FFF7CCFA82460BE0286A40F004002862F1
:10104000EEE700BFFFF7C2FAA0EB0A0159455AD8F4
:10105000286A8007F6D50CE0FFF7B8FA824605E06B
:10106000FFF7B4FAA0EB0A0159454CD8286A80076B
:10107000F6D41FB1E86920F08050E861E06988B3D8
:101080006968C1F38101022944D00228C6F8608052
:1010900004D0FFF79BFA044638E034E0FFF796FAF5
:1010A000074604E0FFF792FAC01B02282BD82868F5
:1010B0008001F7D4206AB0F5803F05D16868A16847
:1010C00020F4003008436860D4E9080108436968E7
:1010D00021F4741108436860C6F86090FFF776FA4F
:1010E000044606E025E000BFFFF770FA001B022867
:1010F00009D828688001F7D51BE000BFFFF766FA22
:10110000001B022802D90320BDE8F88F286880015F
:10111000F4D40EE00128F7D06868226A00F4803128
:10112000914204D1616A00F47010884201D001201C
:10113000EAE70020E8E70000001002400000424219
:10114000800442422C00002000700040024850F809
:10115000210080B270470000006C0040024800EBA4
:10116000810091B201607047006C00407047000040
:1011700010B504460068016889070AD540688007F1
:1011800007D52046FFF7F2FF2068416821F00201F1
:10119000416003494FF4003008600120607410BDC5
:1011A00014040140F8B505004FF0000016460C4647
:1011B000009006D02CB100226946284600F019F8AC
:1011C00008B10120F8BD287B2070E87BE070697BC6
:1011D0006170A97BA17056B101F0F7FAE0706078F8
:1011E00001F0F3FA6070A07801F0EFFAA07000202F
:1011F000F8BD2DE9F04791460C465FEA00084AD059
:1012000084B3D8F800004068400744D4404601F059
:101210007BFB4FF461620546B0FBF2F1B0FBF2F3E9
:1012200002FB13503C23B0FBF3F0B5FBF2F6607009
:1012300002FB1650B0FBF3F203FB1200A07018295A
:1012400031D31820B1FBF0F7B1FBF0F200FB121024
:101250002070404601F051FB411C04D0A84202D945
:10126000461B02E017E04FF0FF36A7EB071000EB3C
:101270004000C0EB001005EBC0152946404601F0C8
:1012800092FB40B9701C01D0711900E03146404614
:1012900001F075FB10B10120BDE8F08739464046EA
:1012A00001F09EFA00E02170B9F1000F0BD0207818
:1012B00001F08BFA2070607801F087FA6070A078F6
:1012C00001F083FAA0700020E6E7000070B504008A
:1012D00003D0607C002610B105E0012070BD2674AB
:1012E000204600F03DF802206074204600F08AF9A4
:1012F000042550BB204601F0CAFA30BB2068416883
:1013000021F007014160A06820B11448016821F074
:10131000010101601148001F0168A26821F4607199
:10132000114301606068411C04D10120FFF7B0FB4C
:1013300058B1401E2268C0F303419160216880B219
:10134000C860204601F0BEFA08B16574C5E7E673CF
:1013500001206073A0736074002070BD306C004089
:1013600008B500680D49884217D1FFF78BFB0C4880
:10137000C16941F00061C161C0690A4900F00060C3
:10138000009001200860002204212920FFF748FB7B
:10139000BDE808402920FFF735BB08BD0028004004
:1013A000001002403C0442422DE9F8434FF0000691
:1013B00017460D46040000960FD075B1207C012819
:1013C0000ED04FF0010984F81090022060740022C2
:1013D00069462046FFF70DFF20B10120BDE8F883E4
:1013E0000220FBE79DF800004FF4616148439DF83F
:1013F0000110C1EB011100EB81009DF8021000EB20
:1014000001082878E7B101F0D7F94FF4616100FBDA
:1014100001F7687801F0D0F9C0EB001007EB800706
:10142000A87801F0C9F93918414501D2174801449B
:10143000204601F0A4FA70B1042060742674CCE751
:101440004FF4616148436978C1EB011100EB810001
:10145000A9780144E8E72068416821F00201416071
:101460002068016841F0020101600948016841F407
:101470000031016006480830016841F40031016024
:1014800084F8119026740020A8E700008051010024
:10149000000401402DE9F0410D4604003BD0C5B3E6
:1014A000207C01283AD04FF0010884F810800220F7
:1014B0006074E87872B301F07FF9E073687801F046
:1014C0007BF96073A87801F077F9A073C2B2617BF1
:1014D000E07B01F029FA20732870204601F014FA0D
:1014E0004FF46161B0FBF1F1002518292DD91822C4
:1014F000B1FBF2F1A1EB011101EB4101C1EB0111D3
:1015000000EBC1163146204601F04DFA0427C8B958
:101510000BE000E004E00120BDE8F0810220FBE7E1
:10152000E07368786073A878CFE7204601F0E5F9AA
:10153000411C0AD0B04208D206490144204601F0BD
:101540001EFA10B167742574E5E784F811802574DC
:101550000020E1E7805101002DE9F0410D46040033
:1015600024D01DB3207C012823D04FF0010884F83B
:101570001080022060742878EAB101F01DF94FF460
:10158000616100FB01F6687801F016F9C0EB00100C
:1015900006EB8006A87801F00FF935182946204699
:1015A00001F001FA0026042710BB0FE00120BDE87E
:1015B000F0810220FBE74FF4616148436978C1EB99
:1015C000011100EB8100A9784518E7E72068416820
:1015D00021F005014160204601F08FF9411C0AD03D
:1015E000A84208D206490144204601F0C8F910B1CA
:1015F00067742674DAE784F8118026740020D6E731
:101600008051010070B504000AD02068416821F0C3
:1016100008014160FEF7DAFF05464FF47A7608E0EC
:10162000012070BDFEF7D2FF401BB04201D903205C
:1016300070BD206840680007F4D5002070BD70B50B
:10164000040009D0606A002540B125616561A5628A
:1016500094F8510040B10CE0012070BD6068B0F515
:10166000827FF4D0E561F2E784F85050204600F024
:101670003FF8022084F851002068016821F0400101
:101680000160A088218900F4827001F404410843BC
:10169000A18901F400610843217C01F002010843A3
:1016A000217D01F001010843218B01F40071084301
:1016B000217F01F03801084394F8201001F08001E7
:1016C0000843218D01F40051084321680860A06996
:1016D000042101EA1040216848602068C16921F4B2
:1016E0000061C1616565012084F85100002070BD72
:1016F00000B585B00021009101910291039100682D
:101700000F4988421AD10F48816941F480518161A3
:10171000816901F480510491816941F00401816182
:101720008069694600F004000490A0200090022027
:101730000190032003900448FEF746FE05B000BD6B
:101740000030014000100240000801402DE9F84F30
:10175000984616468A460446FEF738FF814694F8B6
:10176000510001281ED1BAF1000F73D0002E71D0A4
:1017700094F85000012815D0012784F850700320F8
:1017800084F8510000256565C4F830A0A686E68679
:10179000A563A587E58765642564A068B0F5004F5B
:1017A00003D00CE00220BDE8F88F2068016821F02A
:1017B000400101602068016841F4804101602068B7
:1017C0000168490603D4016841F040010160E06806
:1017D000B0F5006F606803D048B3012E27D047E012
:1017E00008B1012E1FD1206B21680088C86006E077
:1017F00020688168890709D5216B0988C160206B41
:10180000801C2063E08E401EE0860CE0FEF7DEFECA
:10181000A0EB0901414503D3B8F1FF3F03D035E008
:10182000B8F1000F32D0E08E0028E1D123E0206B28
:1018300021680078087306E02068816889070AD566
:10184000216B09780173206B401C2063E08E401EE1
:10185000E0860DE02BE0FEF7B9FEA0EB0901414563
:1018600003D3B8F1FF3F03D010E0B8F1000F0DD063
:10187000E08E0028E0D14A464146204601F0A7F814
:1018800008B120206065A06830B109E084F851708B
:1018900084F85050032086E72068C1688068009073
:1018A00084F8517004F8505F60680028F3D001207C
:1018B00079E77047704710B590F83C20012A22D094
:1018C000012280F83C20CA688C6822F440722243CE
:1018D0004C6822F4806222430C6822F400622243A6
:1018E0000C6922F4805222434C6922F400522243B4
:1018F000C969002322F480420A4301684A6480F8DF
:101900003C30002010BD022010BD000070B590F8E2
:101910003C20012A2CD0012480F83C40022280F88F
:101920003D2003685A689D6822F070060A683243B9
:101930005A60104B02689A420ED00F4B9A420BD05D
:10194000B2F1804F08D00D4B9A4205D00C4B9A4211
:1019500002D00C4B9A4204D1496825F08003194308
:10196000916080F83D40002180F83C10084670BD31
:10197000022070BD002C01400034014000040040F2
:1019800000080040000C004010B5040003D094F89B
:101990003D0010B107E0012010BD002084F83C009C
:1019A000204600F01FF8022084F83D00211D206829
:1019B00001F062FC012084F8460084F83E0084F8BF
:1019C0003F0084F8400084F8410084F8420084F825
:1019D000430084F8440084F8450084F83D0000206A
:1019E00010BD000008B500680649884208D10648C5
:1019F000816941F400618161806900F400600090B8
:101A000008BD0000002C01400010024090F83D107D
:101A1000012901D001207047022180F83D100168A2
:101A2000CA6842F00102CA6000680E4988420ED0BE
:101A30000D4988420BD0B0F1804F08D00B49884245
:101A400005D00B49884202D00A49884204D18168F6
:101A500001F00701062903D0016841F0010101608E
:101A600000207047002C0140003401400004004079
:101A700000080040000C004070B5044690F83C009F
:101A80000025012817D0012684F83C60022084F844
:101A90003D002068826822F0770222F47F42826053
:101AA0000868502838D00DDC20284FD005DC90B3D2
:101AB000102811D14AE0022070BD302846D04028BD
:101AC0000AD13BE060282FD070280DD0B0F5805FA0
:101AD00003D0B0F5005F12D0012584F83D600020EE
:101AE00084F83C00284670BDCB68D1E9012120680C
:101AF00001F010FC2068816841F0770109E0CB68B3
:101B0000D1E90121206801F005FC2068816841F4D9
:101B100080418160E1E719E0CA684968206801F006
:101B2000CDFC5021206806E0CA684968206801F0B1
:101B3000D6FC6021206801F0F7FBCEE7CA6849684F
:101B4000206801F0BBFC40212068F4E722680146D0
:101B50001046F0E770472DE9F04104460068C6687A
:101B600005694FF00007A90713D5B10711D5F91E74
:101B7000016101202077206880698007204602D01B
:101B8000FFF7E8FF04E000F0B1F8204600F043F969
:101B90002777680716D5700714D521686FF0040001
:101BA0000861022020772068806910F4407F204679
:101BB00002D0FFF7CFFF04E000F098F8204600F0D5
:101BC0002AF92777280715D5300713D521686FF034
:101BD00008000861042020772068C069800720463B
:101BE00002D0FFF7B7FF04E000F080F8204600F0D5
:101BF00012F92777E80616D5F00614D521686FF09C
:101C000010000861082020772068C06910F4407F28
:101C1000204602D0FFF79EFF04E000F067F8204660
:101C200000F0F9F82777E80708D0F00706D0216818
:101C30006FF001000861204600F0EEF8280608D594
:101C4000300606D521686FF0800008612046FFF756
:101C500030FE680608D5700606D521686FF0400092
:101C60000861204600F0E2F8A8060AD5B00608D5BB
:101C700021686FF0200008612046BDE8F041FFF7C1
:101C800019BEBDE8F081000000B585B000210091CB
:101C90000191029103910068104988421BD11048BC
:101CA000816941F0400181618069694600F040002E
:101CB00004904FF4007000900220019003900948B6
:101CC000FEF782FB0848416821F0C00141F0E06165
:101CD00041F0C001416005B000BD0000002C014092
:101CE000001002400018014000000140704770B52C
:101CF000044690F83C0000260D4601280FD0012034
:101D000084F83C006AB1042A1DD0082A2FD00C2A7E
:101D10003FD00126002084F83C00304670BD0220F0
:101D200070BD206801F008FB2068816941F008015E
:101D300081612068816921F00401816120688169E5
:101D40002A69114311E0206801F026FB20688169AF
:101D500041F4006181612068816921F480618161C1
:101D6000206881692A6941EA02218161D2E72068FD
:101D700001F048FB2068C16941F00801C161206899
:101D8000C16921F00401C1612068C1692A69114358
:101D900011E0206801F06AFB2068C16941F400612C
:101DA000C1612068C16921F48061C1612068C16995
:101DB0002A6941EA0221C161ACE710B5040003D0F1
:101DC00094F83D0010B107E0012010BD002084F818
:101DD0003C00204600F01EF8022084F83D00211D42
:101DE000206801F049FA012084F8460084F83E009A
:101DF00084F83F0084F8400084F8410084F84200F1
:101E000084F8430084F8440084F8450084F83D00D9
:101E1000002010BD7047704700680349884201D117
:101E2000FEF766BD7047000000080040704770B5BF
:101E3000040004D094F84100002510B106E0012010
:101E400070BD84F84050204600F024F8242084F827
:101E500041002068C16821F40051C160204601F0B2
:101E600077FB2068016921F4904101612068416994
:101E700021F02A0141612068C16841F40051C1602C
:101E80006564202084F8410084F8420065630020E6
:101E900070BD000070B586B00024009401940294D7
:101EA0000394234E0368234902200322224DB342A8
:101EB00019D18B6943F480438B618B6903F48043B0
:101EC00004938B6943F004038B618969039201F0E9
:101ED000040104910102CDE9001069462846FEF78D
:101EE00073FA28151BE0154EB3421FD1CB6943F49A
:101EF0000033CB61CB6903F4003304938B6943F067
:101F000004038B618969039201F0040104910421A7
:101F1000CDE9001069462846FEF756FA0820CDE9BB
:101F20000004694628460294FEF74EFA06B070BDDA
:101F30000038014000100240000801400044004009
:101F40002DE9F843044690F84100984616460D46A0
:101F5000202802D00220BDE8F88385B17EB10020A0
:101F60006064212084F84100FEF730FBA68481469E
:101F7000E684A0682027B0F5805F02D003E001204E
:101F8000E9E7206910B12E4600250EE000260CE09E
:101F90008021204601F038FBA8B9C6B116F8010B24
:101FA00021684860E08C401EE084E08C4B464FF096
:101FB0000002CDF800800028EAD14FF04001204611
:101FC00001F022FB40B184F841700320C3E735F8EB
:101FD000020BC0F30800E3E784F841700020BAE781
:101FE000FEE701684A69D24352050FD46FF480625C
:101FF0004A61002140F8301F202242738173026938
:1020000042F0040202610173012070470020704712
:102010002DE9F843044600680D46DDE9089701689C
:102020009846164641F4807101604B4600224FF0FD
:1020300001112046009700F06BF848B12068006855
:10204000C00502D54FF4007020640320BDE8F8837A
:10205000216805F0FE0008613B464A4615492046C6
:1020600000F09EF888B920684169806900903A467E
:102070004946204600F0F2F848B1206C042804D10B
:102080002068016841F4007101600120DEE7F5B2CB
:10209000B8F1010F09D02168300A08613A46494673
:1020A000204600F0DBF80028E7D120680561002019
:1020B000CCE700000200010070B516460D4604464C
:1020C0001EE02046FFF78DFF08B1012070BD681C9F
:1020D00016D0FEF77BFA801BA84200D885B920688D
:1020E0004069C04340070BD5002044F8300F202141
:1020F0006173A073216941F0200121612073E4E73D
:1021000020684069C0434007DBD4002070BD000058
:102110002DE9F047984617460D460446C1F3074699
:10212000DDF820902AE000BFB8F1FF3F26D0FEF78F
:102130004DFAA0EB0901414502D8B8F1000F1DD1BD
:102140002068012E16D0806925EA00000004000CEA
:1021500012D00020B84211D1002044F8300F2021C5
:102160006173A073216941F0200121612073012076
:10217000BDE8F0874069E7E70120EBE72068012E22
:102180000AD0806925EA00000004000C06D0002077
:10219000B842C9D00020EBE74069F3E70120F7E738
:1021A0002DE9F047984616460D4604464FF00009C3
:1021B0004FF0200AC1F3074723E020684069C0437D
:1021C000400515D42068016841F400710160216860
:1021D0006FF480604861C4F8309084F83DA084F8C2
:1021E0003E90216C41F00401216484F83C9021E090
:1021F000701C06D0FEF7EAF9A0EB0800B04203D845
:1022000016B1012F1FD021E02068012F15D0806961
:1022100025EA00000004000C18D000BF44F8309FED
:1022200084F80DA084F80E90216941F0200121610D
:1022300084F80C900120BDE8F087406925EA000091
:102240000004000CEAD12068406901E02068806940
:1022500025EA00000004000CAFD1ECE770B516468B
:102260000D4604461EE02046FFF7BBFE08B10120E4
:1022700070BD681C16D0FEF7A9F9801BA84200D8D3
:1022800085B920684069C04300060BD5002044F89A
:10229000300F20216173A073216941F02001216179
:1022A0002073E4E720684069C0430006DBD40020C7
:1022B00070BD000003B583B06423012204A98DE83A
:1022C0000E0013460246D0210348FEF749FA0520C6
:1022D000FEF73CF805B000BD7408002010B50121E0
:1022E0006B20FFF7E7FF00216C20FFF7E3FF0921D8
:1022F0001920FFF7DFFF06211A20FFF7DBFF182167
:102300001B20FFF7D7FF1821BDE810401C20FFF766
:10231000D1BF000000B587B01C2206496846FDF712
:1023200081FF0021684601F09BFC0349086007B06B
:1023300000BD000030860008000000202DE9F047B5
:1023400086B0002541480095019502950395816965
:1023500041F010018161816901F0100104918169EE
:1023600041F004018161816901F0040104918169F6
:1023700041F040018161816901F04001049181696E
:1023800041F008018161816901F0080104918169CE
:1023900041F0200181618069DFF8B48000F0200005
:1023A0000122049011464046FEF70AF90122DFF8A7
:1023B000A490160231464846FEF702F9DFF898A0CD
:1023C00048F21207012239465046FEF7F9F8072075
:1023D000009022480124CDE9010469462048FDF718
:1023E000F3FF0220CDE90250009469460194404673
:1023F000FDF7EAFFCDE900640326CDE90256694600
:102400004846FDF7E1FF01AA009782E8700069469F
:102410005046FDF7D9FF002205210620FEF700FBFC
:102420000620FEF7EFFA002205210720FEF7F8FA52
:102430000720FEF7E7FA002205210820FEF7F0FA50
:102440000820FEF7DFFA06B0BDE8F0870010024072
:102450000008014000180140001401400000211054
:10246000001001400D4810B50B4901600C49416056
:1024700000214FF480428160C0E903124161816113
:10248000C1610162FEF7A8F8002803D0BDE8104042
:10249000FDF75ABF10BD000000580040740800202E
:1024A000A08601002DE9F04186B00026544803962D
:1024B000009601960296C16941F00061C161C1694F
:1024C00001F000610491C16941F08051C161C069AE
:1024D0004D4D00F0805004904A482860701E68609E
:1024E0004FF48070A8602846FEF7F0FE08B1FDF7B3
:1024F0002BFF01214448FEF729FE45F251084045D3
:1025000056D011248DF80C4033278DF80D708DF8BE
:102510000E60012203A93C48FFF71EF808B1FDF741
:1025200013FF03208DF800008DF8010027208DF89F
:10253000020025208DF80300012269463248FEF78B
:10254000A9FF08B1FDF700FF8DF804408DF8057074
:1025500005208DF80600012201A92B480296FEF7FE
:1025600023FF08B1FDF7F0FE2868016841F0010182
:102570000160424601212448009CFEF7EFFD220E37
:1025800002212148FEF7EAFDC4F3072203211E4879
:10259000FEF7E4FDC4F3074204211B48FEF7DEFD0D
:1025A000E2B205211848FEF7D9FD06B0BDE8F0817A
:1025B00002211548FEF7CAFD60F31F64032112488B
:1025C000FEF7C4FD60F30F2404210F48FEF7BEFDA3
:1025D00060F3174405210C48FEF7B8FD60F30704CB
:1025E0000022694608480094FEF754FF08B1FDF741
:1025F000ABFE2868016841F001010160D5E70000E9
:102600000010024000280040C8080020104810B503
:102610000E4901604FF48271416000218160C16008
:102620004FF400720161C0E905120822C0E90721D8
:10263000416281620A21C162FFF701F8002803D0DC
:10264000BDE81040FDF780BE10BD00000030014025
:10265000DC08002010B596B000240F94109411945B
:10266000129413941C2108A81494FDF7F4FD202162
:102670006846FDF7F0FD29482749016040F2CF2167
:10268000C0E901146321C0E903148021C0E90541B8
:10269000FFF77AF908B1FDF757FE4FF480500F901D
:1026A0000FA91E48FFF7E8F908B1FDF74DFE1B48DA
:1026B000FFF783FB08B1FDF747FE139413A91748F2
:1026C0001494FFF723F908B1FDF73EFE6020CDE931
:1026D00008040220CDE90A040C940D94002208A9F4
:1026E0000E480E94FFF703FB08B1FDF72DFE009492
:1026F0004FF40050CDE904400294019403946946DC
:1027000006480794FFF7D7F808B1FDF71DFE034808
:10271000FFF7BAFA16B010BD002C014034090020B2
:102720000C4810B50A4901604FF4E13141600021C5
:1027300081600C22C160C0E904128161C161FFF7B0
:1027400076FB002803D0BDE81040FDF7FDBD10BDAD
:10275000003801407C0900200C4810B50A4901608E
:102760004FF4E1314160002181600C22C160C0E979
:1027700004128161C161FFF75AFB002803D0BDE854
:102780001040FDF7E1BD10BD00440040C409002029
:10279000FEE7FEE710B50448FEF7EAFCBDE810408E
:1027A00002A000F06BBF0000C8080020416C6172FD
:1027B0006D2121210D0A0000010901EB810100F0CA
:1027C0000F0000EB4100C0B27047002102E00A3860
:1027D000C0B2491C0A28FAD2090740EA11607047C2
:1027E0002DE9F04104460025C07B627BA37B42E0DB
:1027F000012A16D0032A14D0052A12D0072A10D095
:10280000082A0ED00A2A0CD00C2A0AD0042A10D08A
:10281000062A0ED0092A0CD00B2A0AD0022A0DD083
:1028200028E01F2B0CD30C2A05D101221346401C93
:1028300020E01E2B04D30123521C1BE01C2B02D2D0
:1028400003F1010316E011D183B29E0710D1642673
:10285000B3FBF6F706FB173636B94FF4C876B3FB71
:10286000F6F706FB17331BB91D2303E01D2B01D11F
:10287000032201236D1C8D42BAD3D1B2E073617380
:10288000DAB2A27300F050F82073BDE8F08170B5A1
:102890000446FDF79BFE05464FF47A7606E0FDF709
:1028A00095FE401BB04201D9032070BD20684068EE
:1028B0008006F4D52068416841F010014160002095
:1028C00070BD000070B504460068416821F0100139
:1028D0004160FDF77BFE05464FF47A7607E000BFC6
:1028E000FDF774FE401BB04201D9032070BD206883
:1028F00040688006F4D5002070BD0168086A496A06
:1029000089B241EA00407047006881698AB2C169B2
:102910008BB2816989B28A4203D0C06961F31F40DA
:10292000704743EA02407047F0B56424C1EBC1032D
:102930000927A500072603EB01130329B3FBF7F1D1
:1029400000F5FA60114401440AD2401EB0FBF4F2D3
:1029500001EB9001B0FBF5F0891A0844001D08E076
:10296000B0FBF4F201EB9001B0FBF5F0891A0844DA
:10297000801CB0FBF6F106FB1100C0B2F0BD70B5D3
:102980000D4606460024FFF782FF48B93168280C3F
:1029900008623168A8B248623046FFF793FF00B181
:1029A0000124204670BD70B50D4606460024FFF791
:1029B0006EFF48B93168280C88613168A8B2C861D7
:1029C0003046FFF77FFF00B10124204670BDF8B507
:1029D00015460E460B46009204460122022100F0E5
:1029E00011F840B93346002280212046009500F0BE
:1029F00009F8002804D0606D40F0200060650320D5
:102A0000F8BD00002DE9F8431E469146884604466D
:102A1000089DFDF7DBFD401B351AFDF7D7FD074686
:102A200025480068C0F3CB30684338E0701C37D0CD
:102A3000FDF7CCFDC01BA84203D215B1009860B3CE
:102A40002CE02068416821F0E00141606068B0F549
:102A5000827F0BD1A068B0F5004F02D0B0F5806F37
:102A600004D12068016821F040010160A06AB0F53E
:102A7000005F09D12068016821F4005101602068DD
:102A8000016841F400510160012084F851000020E8
:102A900084F850000320BDE8F8830025401E009014
:102AA0002068816838EA010004D000214945BDD181
:102AB0000020F0E70121F9E72C0000202DE9FF4F6D
:102AC00083B09846DDE910944A1E637825781A444D
:102AD000D3B2421E2A44D2B2C9B2C0B200F062FAE6
:102AE0002C2000F0B3FA002637E01F4884420598F6
:102AF00001D12E3800E0203800FB0160616800251C
:102B00004FEA192B51F820704FEA1820019008F075
:102B1000FF0009F0FF0A00901BE000BF07FA05F173
:102B2000102802D94FF0004001E04FF4004001426C
:102B300006D001988DF8080000988DF8090003E090
:102B40008DF808B08DF809A0022102A800F09CFAC7
:102B50006D1C2078A842E1D8761C6178B142C4D8B7
:102B600007B0BDE8F08F00002886000870B51C464D
:102B700015460A19521ED3B24219521ED2B2C9B218
:102B8000C0B2049E00F00EFA2C2000F05FFA69003B
:102B900061433046BDE8704000F076BA2DE9F0415F
:102BA0001E46069B002415461F0A134ADBB207E0A7
:102BB00002F8147002EB440C641C8CF80130A4B2CF
:102BC000AC42F5D38A19521ED3B24219521ED2B268
:102BD000C9B2C0B200F0E6F92C2000F037FA0024A8
:102BE0006D0005E02946044800F04EFA641CA4B2CA
:102BF000B442F7D3BDE8F081BC0000202DE9FC47CA
:102C00009946DDE90A8416460F46054616E0207807
:102C10002844802803D960780025384487B260783A
:102C20003844A0280DD8CDE900844B4639462846C3
:102C3000FFF744FF2078761C284485B23278002ABA
:102C4000E5D1BDE8FC872DE9FC479946DDE90A841A
:102C500016460F46054616E020782844802803D9FA
:102C600060780025384487B260783844A0280DD8B1
:102C7000CDE900844B463946284600F009F8207813
:102C8000761C284485B23278002AE5D1BDE8FC875D
:102C90002DE9FF4F83B01446DDF8449099F80020E9
:102CA00099F8013002FB03F5C5F3C7084D1E2B440C
:102CB000451E2A44DBB2D2B2C9B2C0B200F072F9EA
:102CC0002C2000F0C3F9202C09D03A2C09D02F3C3D
:102CD00004FB08F4D9F804000026075D2DE0002469
:102CE000F8E708EB480101EBC804F3E70698002574
:102CF000000A01900698C0B2009010984FEA102B7D
:102D000000F0FF0A27FA05F0C00706D001988DF8F9
:102D1000080000988DF8090003E08DF808B08DF8E0
:102D200009A0022102A800F0AFF96D1C082DE9D31B
:102D3000D9F80400641C761C075D4645D6D307B05D
:102D4000BDE8F08F08B500210090A023802208463E
:102D5000FFF724FF08BD10B500F00EF9112000F0B8
:102D600075F97820FDF7F2FAB12000F06FF9012033
:102D700000F04EF92C2000F04BF92D2000F048F91E
:102D8000B22000F063F9012000F042F92C2000F09D
:102D90003FF92D2000F03CF9B32000F057F9012055
:102DA00000F036F92C2000F033F92D2000F030F936
:102DB000012000F02DF92C2000F02AF92D2000F040
:102DC00027F9B42000F042F9072000F021F9C020D3
:102DD00000F03CF9A22000F01BF9022000F018F9E5
:102DE000842000F015F9C12000F030F9C52000F072
:102DF0000FF9C22000F02AF90A2000F009F900209A
:102E000000F006F9C32000F021F98A2000F000F953
:102E10002A2000F0FDF8C42000F018F98A2000F004
:102E2000F7F8EE2000F0F4F8C52000F00FF90E20BE
:102E300000F0EEF8202000F009F93A2000F006F941
:102E4000052000F0E5F82A2000F000F9002000F04D
:102E5000DFF8002000F0DCF8002000F0D9F87F2037
:102E600000F0D6F82B2000F0F1F8002000F0D0F8A8
:102E7000002000F0CDF8002000F0CAF89F2000F0FC
:102E8000C7F8E02000F0E2F8022000F0C1F81C20B2
:102E900000F0BEF8072000F0BBF8122000F0B8F8F0
:102EA000372000F0B5F8322000F0B2F8292000F009
:102EB000AFF82D2000F0ACF8292000F0A9F825206B
:102EC00000F0A6F82B2000F0A3F8392000F0A0F8BD
:102ED000002000F09DF8012000F09AF8032000F097
:102EE00097F8102000F094F8E12000F0AFF80320EC
:102EF00000F08EF81D2000F08BF8072000F088F815
:102F0000062000F085F82E2000F082F82C2000F03A
:102F10007FF8292000F07CF82D2000F079F82E2091
:102F200000F076F82E2000F073F8372000F070F8EB
:102F30003F2000F06DF8002000F06AF8002000F05B
:102F400067F8022000F064F8102000F061F8132008
:102F500000F07CF80A20FDF7F9F9292000F076F856
:102F60000A20FDF7F3F9002000F03AF8BDE8104020
:102F70000020FFF7E7BE000010B5094C0022102129
:102F80002046FDF71DFB6420FDF7E0F9012210212A
:102F90002046FDF715FBBDE810406420FDF7D6B9CB
:102FA00000140140F8B507461C4615460E462A2077
:102FB00000F04CF8002000908DF801708DF803505F
:102FC0000421684600F060F82B2000F03FF88DF8EF
:102FD00001608DF803400421684600F055F8F8BD03
:102FE00010B5002430B1012806D0022807D00328EC
:102FF00005D103E0C02402E0A02400E060243620D4
:1030000000F024F82046BDE8104000F001B80000B0
:1030100031B50C4C0122D1032046FDF7D1FA002234
:1030200002212046FDF7CCFA4FF0FF33012269461A
:103030000548FEF78BFB012202212046FDF7C0FA6E
:1030400038BD000000140140DC08002031B50C4CF4
:1030500000224FF400412046FDF7B2FA002202217F
:103060002046FDF7ADFA4FF0FF33012269460548CF
:10307000FEF76CFB012202212046FDF7A1FA38BDC4
:1030800000140140DC08002070B50D4E0D460446CA
:103090000122D1033046FDF793FA00220221304687
:1030A000FDF78EFAAAB24FF0FF3321460548FEF72E
:1030B0004DFB3046BDE8704001220221FDF780BA89
:1030C00000140140DC0800201CB501F07BFC214904
:1030D0000120CDE90001002380221FA1204802F039
:1030E00033FA1C490220091DCDE90001002380228A
:1030F0001CA11E4802F028FA164803240C30CDE922
:103100000040002380221AA11B4802F01DFA11483A
:1031100000230830CDE90040802218A11B4802F0AE
:1031200013FA0146012802D019A000F0A7FA094CB1
:10313000241F606801F0C2FEA06801F0BFFE0020FD
:1031400001F03EFD01F05EFC4FF47A74204600F081
:103150007BFDFBE7040000207461736B310000000D
:10316000254600087461736B320000004D4600086C
:103170007461736B330000007546000873686F77E5
:103180005461736B496E666F000000000D460008C5
:103190005461736B2033206372656174696F6E20B4
:1031A0006661696C656421204572726F7220636F7D
:1031B00064653A2025640D0A0000000010B5502017
:1031C00080F31188BFF34F8FBFF36F8F02F028FA9F
:1031D00018B104494FF080500860002080F3118836
:1031E00010BD000004ED00E070B596B028216846DF
:1031F000FDF731F814210AA8FDF72DF818210FA8C2
:10320000FDF729F80920012400904FF480300025B3
:1032100004940694CDE901050226CDE907604FF438
:10322000E01009906846FDF701FE08B172B6FEE7AE
:103230000F20CDE90A064FF48060CDE90C50022141
:103240000AA80E95FDF7F6FC08B172B6FEE74FF43A
:103250000070CDE90F400FA8FDF776FC002801D0E3
:1032600072B6FEE716B070BD704700000148FEF769
:1032700072BC00000C0A0020F0B50268204C214D01
:10328000214E224F224B4FF0804CA04209D0984251
:1032900007D0604505D0A84203D0B04201D0B84263
:1032A00004D122F0700E4A6842EA0E02A04209D010
:1032B000984207D0604505D0A84203D0B04201D063
:1032C000B84203D122F44075CA682A434D6922F0FE
:1032D00080022A4302608A68C2620A688262A0424F
:1032E00001D0984201D1096901630121416101695D
:1032F000C90703D0016921F001010161F0BD00009F
:10330000002C01400004004000080040000C004078
:103310000034014010B5846842EA032224F47F445B
:103320000A432243826010BD826822F070020A4381
:1033300042F0070181607047F0B5036A026A22F02B
:103340000102026242688469124E24F073050C681F
:103350002C4323F002058B682B430D4DA84201D06E
:10336000B04205D123F00807CB683B4323F00403A8
:10337000A84201D0B04205D14D6922F440721543F4
:103380008A692A4342608461496841630362F0BDEF
:10339000002C014000340140F0B5026A036A23F0BA
:1033A00010030362436884690D6824F4E64444EA28
:1033B00005248D6822F0200242EA05120F4D104EBE
:1033C000A84201D0B04206D1CF6822F0800242EA82
:1033D000071222F04002A84201D0B04207D14D6945
:1033E00023F4406343EA85038D6943EA8503436020
:1033F0008461496881630262F0BD0000002C0140D5
:1034000000340140F0B5026A036A23F4807303625A
:103410004368C46922F4007224F073050C68124EEC
:103420002C438D6842EA05220E4DA84201D0B042DD
:1034300006D1CF6822F4006242EA072222F48062B9
:10344000A84201D0B04207D14D6923F4405343EA6A
:1034500005138D6943EA05134360C4614968C1637C
:103460000262F0BD002C01400034014030B5046A16
:10347000026A22F4805202624268C3690D6823F432
:10348000E64343EA05238D6824F4005444EA0534F6
:10349000084DA84202D0084DA84204D14D6922F43B
:1034A000804242EA85124260C36149680164046255
:1034B00030BD0000002C01400034014010B5036A0B
:1034C000046A24F001040462846924F0F00444EAEC
:1034D000021423F00A020A438461026210BD10B58F
:1034E000036A046A24F010040462846923F0A003D0
:1034F00024F4704444EA023243EA01118261016219
:1035000010BD01680C3151E8002F22F4907241E89F
:103510000023002BF5D10168143151E8002F22F06F
:10352000010241E80023002BF5D1016B012909D1EB
:1035300001680C3151E8002F22F0100241E800230D
:10354000002BF5D1202180F8421000210163704743
:1035500070B5044600680169E26821F440511143E6
:1035600001612169A0680843616908432168CA684C
:1035700041F20C639A430243CA6020684169A26920
:1035800021F44071114341611E492068884202D1F3
:10359000FDF716FC01E0FDF703FC00EBC00101EBB9
:1035A0000012606864218000B2FBF0F3B3FBF1F31A
:1035B0006FF018067343B2FBF0F5B2FBF0F605EBC3
:1035C0008305322303EB0515B5FBF1F5B6FBF1F6E8
:1035D00005F0F00505EB0615B2FBF0F6B2FBF0F0D6
:1035E000B0FBF1F06FF01802504306EB800003EBE4
:1035F0000010B0FBF1F0216800F00F002844886053
:1036000070BD0000003801402DE9F8439846174688
:103610000D460446089E24E0701C22D0FCF7D6FF1D
:10362000A0EB0800B0421AD8CEB12068C1684907A3
:1036300017D5802D15D0402D13D00168C943090737
:103640000FD401680025406800902046FFF759FF1D
:103650000820606484F840500120BDE8F88303200E
:10366000FBE72068006835EA000004D00020B8427B
:10367000D2D00020F1E70120F9E7FEE70FB4054BB7
:1036800010B503A9044A029800F03CF810BC5DF89C
:1036900014FB0000D93B0008B80000200FB4084B11
:1036A00010B504A902AA039800F02CF8044602A958
:1036B000002000F052FA204610BC5DF814FB000018
:1036C0005B3B00080907090E002804DB00F1E0203D
:1036D00080F80014704700F00F0000F1E02080F83F
:1036E000141D704702E008C8121F08C1002AFAD151
:1036F00070477047002001E001C1121F002AFBD172
:10370000704700002DE9FF4F8DB00F46054600269B
:1037100006E025280BD0DDE90F1290476D1C761CC2
:1037200028780028F5D111B03046BDE8F08F00248C
:10373000A246A1460122E94900E0044315F8013FF1
:10374000203B02FA03F00842F7D128782A2810D04B
:103750006FF02F022878A0F13001092914D80AEB64
:103760008A0102EB410144F0020400EB010A6D1CE6
:10377000F0E701CF5FEA000A03D544F40054CAF130
:10378000000A44F002046D1C28782E2817D115F881
:10379000010F44F004042A280ED06FF02F0228787D
:1037A000A0F1300109290AD809EB890102EB410196
:1037B00000EB01096D1CF2E757F8049B6D1C28789B
:1037C0006C280FD006DC4C2817D068280DD06A284A
:1037D00014D104E0742810D07A280FD10DE044F4FD
:1037E00000140AE044F4801401E044F440146978C1
:1037F000814202D104F580146D1C6D1C28786E285E
:103800001ED00CDC632830D004DC00288BD0582874
:1038100011D19FE0642867D069280CD164E0732837
:103820002DD004DC6F2872D0702804D194E0752864
:103830006ED078286DD0DDE90F129047761C4BE1F1
:10384000C4F30250022806D0032809D0042801CF6F
:1038500009D0066040E101CFF117C0E900613BE10A
:1038600001CF068038E1067036E117F8040B8DF8B9
:10387000000000208DF80100EB46012003E057F81E
:1038800004BB4FF0FF3061074FF0000102D40DE0A0
:1038900008F10101884649450FDA8045F8DB1BF83D
:1038A00008100029F4D108E008F10101884681429E
:1038B000FADB1BF808100029F6D1DDE90F23AAEB8B
:1038C00008008146214600F031F9304400EB08063B
:1038D00004E0DDE90F121BF8010B9047B8F1010875
:1038E000F7D221464846F2E00A21C4F302524FF0D3
:1038F000000B0891022A04D001CFC117032A09D076
:103900000AE0FF1D27F00707F7E8020108E02CE0B6
:103910001EE01FE000B2C117042A01D140B2C11756
:10392000021E71F1000206DA0023D0EB030063EB04
:1039300001012D2202E0220504D52B228DF824203E
:10394000012203E0E20701D02022F7E7904653E08E
:103950000A210BE0102109E010214FF0000B44F088
:1039600004044FF00809089103E008214FF0000B10
:103970000891C4F30252022A04D001CF0021032A85
:1039800006D006E0FF1D27F00707F7E8020103E075
:1039900080B2042A00D1C0B24FF0000822072BD514
:1039A0002A78702A07D0DDF820C08CF0100C5CEA71
:1039B0000B0C05D00EE040228DF82420012208E0F7
:1039C00050EA010306D030238DF824308DF82520ED
:1039D00002229046089B83F0080353EA0B030BD1A5
:1039E00050EA010201D1620706D530228DF8242069
:1039F0004FF00108A9F101092A78582A04D038A209
:103A00000B9208AA0A920BE03AA2F9E75B46089AE1
:103A1000FCF73CFC0B9B9B5C0A9A521E0A921370AB
:103A200050EA0102F2D10A98ADEB000000F1200B40
:103A3000600702D524F4803401E04FF00109D94534
:103A400002DDA9EB0B0000E0002000EB0B0141447C
:103A50000890AAEB010AE00306D4DDE90F23214612
:103A6000504600F063F806444FF0000908E009A949
:103A700011F80900DDE90F12904709F10109761CE0
:103A8000C145F4DBE0030CD5DDE90F2321465046A8
:103A900000F04CF8064404E0DDE90F1230209047B6
:103AA000761C0899481E08900029F5DC08E00A9861
:103AB0000A990078491C0A91DDE90F129047761C9B
:103AC000BBF10001ABF1010BF1DC21465046DDE911
:103AD0000F2300F019F806446D1C21E609280100A7
:103AE0003031323334353637383961626364656674
:103AF0000000000030313233343536373839414236
:103B000043444546000000002DE9F04104460025ED
:103B10001E461746880404D405E039462020B047E5
:103B20006D1C641EF9D52846BDE8F0812DE9F041F1
:103B3000044600251E469046C80301D5302700E004
:103B40002027880404D505E041463846B0476D1C5F
:103B5000641EF9D52846BDE8F0810A68531C0B6045
:103B6000107070472DE9F041040006D0184E3068FF
:103B700084420AD10020BDE8F081502080F31188F2
:103B8000BFF34F8FBFF36F8FFEE700F01BFF656938
:103B9000776BB66B00F036FFBD4201D0B54201D164
:103BA0000220E8E70B48854208D1A06A0028F7D137
:103BB00094F858000128F3D00320DCE705481438B6
:103BC000854202D00DB10120D5E70420D3E70000E3
:103BD00030000020700B002013B54FF0FF3301229E
:103BE00069460248FEF7ACF900981CBD7C0900202C
:103BF000FCF786FEFFF7F8FAFEF7A0FBFEF790FD54
:103C0000FEF750FCFEF7A8FDFEF700FDFEF722FDD3
:103C1000FEF728FCFFF79FF8FEF760FB03A0FFF715
:103C20002DFDFEF777FB00F016F8FEE748656C6C9B
:103C30006F20576F726C64210D0A0000014600204E
:103C4000842900D0C81C704710B500B9012000F0CD
:103C500091FF002010BD10B501F0ECF8002010BD60
:103C60007FB50D4604464169B0F9080081B1A169EC
:103C700071B1FFF7E3FFD4E905128DE80700D4E93D
:103C800000102B46226901F08CFC039004B070BD3B
:103C9000FFF7D4FF03A9CDE90001208A2B4682B2A9
:103CA000D4E9001001F050FC012801D00020EDE71C
:103CB0000398EBE72DE9F041184C0F460546E668FE
:103CC0002068001D00F0CEFD38B9206890F82C1057
:103CD00001208840216981432161681C07D137B1E7
:103CE0002168BDE8F0410E48091D00F05FBE206864
:103CF0003544B5424560216805D2A06BBDE8F0416E
:103D0000091D00F03BBE606B091D00F037FEA06A84
:103D1000854200D2A562BDE8F0810000300000209D
:103D2000700B00202DE9F041054600F04BFE2E4CB3
:103D3000A068401CA06020682C4F10B1606940B39F
:103D40002DE02560A068012829D1002606EB860019
:103D500007EB800000F004FE761C072EF6D3234804
:103D60008C3000F0FDFD2148A03000F0F9FD1F4827
:103D7000B43000F0F5FD1D48C83000F0F1FD1B48DF
:103D8000DC3000F0EDFD19488C3060631430A06326
:103D900005E02068E96AC06A884200D82560606A48
:103DA000401C60626864E96A01202269884010430F
:103DB000206101EB810007EB8000291D00F0F6FD7A
:103DC00000F020FE606900280CD02068E96AC06A13
:103DD000884207D206494FF080500860BFF34F8FEA
:103DE000BFF36F8FBDE8F08130000020940A0020FF
:103DF00004ED00E038B500F0E5FD104C2068C8B9CE
:103E00000F4800F0ADFD0E48143000F0A9FD0C483D
:103E1000E060143020610A4B0020C83B009003F1A1
:103E200050020C210A2001F031F9206010B105A1E7
:103E300000F06AFEBDE8384000F0E4BD6C000020F0
:103E40004C0C0020546D72510000000030B4026C24
:103E50000B46002A0BD0C1681144C1608468A1429E
:103E600001D30168C16030BC1846FCF7DBB930BC37
:103E700070472DE9F041856B174604460026026C19
:103E800082B1C7B1E068FCF7CDF9E168206C091A8E
:103E9000E1602268914202D2A168081AE060022F14
:103EA00016D017E02068A8B9A06801F01FFC0646EC
:103EB0000020A0600EE06068FCF7B4F9216C606837
:103EC00008446060A168884204D32068606001E013
:103ED00005B16D1E6D1CA5633046BDE8F08110B5BF
:103EE000044690F8590058B101280CD002280FD090
:103EF000502080F31188BFF34F8FBFF36F8FFEE721
:103F0000206B00F093FD2046BDE8104000F08EBD10
:103F100010BD000010484FF4A041420706D0C01D5C
:103F20000D4920F00700411AC1F5A0410B4A0023BA
:103F30000144C2E900030839183A21F00701116071
:103F40004B600B600B1AC0E9001393604FF0004008
:103F50005360506170470000740C002098000020EE
:103F6000144E154CA6F1C8074FF08058DFF84C905E
:103F700012E000BF00F026FDF068C568281D00F0C3
:103F800071FCA068401EA0606068401E606000F088
:103F900039FD2846FFF7A3FF60680028EAD138689A
:103FA0000128F9D9C9F80080BFF34F8FBFF36F8F95
:103FB000F2E700005C0B00203000002004ED00E080
:103FC00070B51D46049C51B1C4F80020C4E90F012E
:103FD0000121204601F08EF884F84C5070BD246019
:103FE000F4E700002DE9F05F8846DDE90B94154603
:103FF000834691009A460A9EA522206BFCF724F97D
:104000006FF00301206B01EB8501084420F00707E6
:10401000780707D0502080F31188BFF34F8FBFF38C
:104020006F8FFEE70025B8F1000F0FD05FF00000A2
:10403000221818F8001082F8341018F8001011B186
:10404000401C1028F4D384F8435001E084F8345025
:10405000072E00D30626E662C4E91365201D00F092
:104060008AFC04F1180000F086FC2461C6F1070008
:104070006462A061656584F85850524659463846D6
:1040800000F080FA2060B9F1000F01D0C9F80040BB
:10409000BDE8F09F30B5114900E011460A68824240
:1040A000FBD34B685C18844203D1406818444860D5
:1040B000084643681C18944209D1084C183C2468EF
:1040C000A24209D052681A4442600A68126802602B
:1040D000814200D0086030BD0460F9E798000020FC
:1040E00070B5002441600B4D0061914206D8D11A91
:1040F0008269914206D2011D286907E09A4203D2E3
:10410000994201D3012403E0011DE86800F036FC68
:10411000204670BD6C00002010B5044600F052FC33
:10412000A06B28B15FF0000400F06CFC204610BDCD
:104130000124F9E72DE9F0478146086892460C46CC
:10414000002600B3606804F1080540686060A8427A
:1041500001D1416861606068D0F80C806068406897
:104160006060A84201D141686160606806EBC601E9
:1041700009EB8101C76853460122384600F076FDFD
:10418000761C4745EAD13046BDE8F08730B587B0A8
:10419000394D67E00498002864DB069C606910B123
:1041A000201D00F05FFB03A800F0D8F80246049839
:1041B0000A2857D2DFE800F00505052D334A05052A
:1041C0002D3394F8280040F0010084F82800059968
:1041D000A069059B01442046FFF782FF68B3216A6E
:1041E0002046884794F8280040073BD500200090DF
:1041F0000598A169002342181946204601F08EFB5C
:10420000D8B9502080F31188BFF34F8FBFF36F8F61
:10421000FEE714F8280F20F00100207022E094F847
:10422000280040F0010084F828000598A06128B11A
:10423000811813462046FFF753FF13E0502080F308
:104240001188BFF34F8FBFF36F8FFEE794F82800FC
:10425000810703D4204600F0E9FB03E020F00100D1
:1042600084F82800002204A9286801F097F80028A3
:1042700090D107B030BD00006C0000202DE9FC415A
:104280000F46054600F078FE01A800F067F80446E6
:10429000019818B101F0B0FABDE8FC81254EAFB12C
:1042A00030690068D0B30027291B3A46306800F017
:1042B0003FFC01F0A1FA0028EED11F494FF08050D9
:1042C0000860BFF34F8FBFF36F8FE5E7A542EBD8D0
:1042D00001F092FAF0682746C068C468201D00F01B
:1042E000C1FA94F82800410719D5A0692B46411955
:1042F0003A462046FFF7F4FEA8B1002003460146E7
:1043000000902A46204601F009FB60B9502080F356
:104310001188BFF34F8FBFF36F8FFEE707E020F0E8
:10432000010084F82800216A20468847B4E7012765
:10433000BAE700006C00002004ED00E00648416B85
:10434000096829B1416BC968C968496881627047C9
:104350004FF0FF31FAE700003000002070B505464D
:1043600001F058F9064E0446B068844203D200F0CA
:1043700009F8012000E0002028602046B46070BDEC
:104380006C000020F8B5194D20E0C068C4680668CC
:10439000201D00F067FA216A2046884794F828001B
:1043A000400713D5A0693044B04206D9246160604B
:1043B000211DE86800F0E2FA08E00020034601460B
:1043C00000903246204601F0A9FA38B1E868016849
:1043D0000029DAD12969C5E90310F8BD502080F31E
:1043E0001188BFF34F8FBFF36F8FFEE76C00002083
:1043F00008484068401C4FF0500080F3118804D0FA
:10440000BFF34F8FBFF36F8FFEE7BFF34F8FBFF345
:104410006F8FFEE7A0000020074CE068016841B103
:10442000C0680021D0F80000FFF728FFFFF7AEFEBC
:10443000F3E701210020F7E76C0000202DE9F041AF
:10444000044600F0BFFA94F9455004F1240609E04F
:10445000606A48B1304601F095F908B100F0B0FC4F
:104460006D1E6DB2002DF3DC4FF0FF3684F8456011
:1044700000F0C8FA00F0A6FA94F9445004F11007CD
:1044800009E0206948B1384601F07CF908B100F034
:1044900097FC6D1E6DB2002DF3DC84F84460BDE81E
:1044A000F04100F0AFBA00002DE9F04105460027C9
:1044B00000F062FD324E306808B9FFF72BFD7069DD
:1044C00005424ED1C5B3083568070ED005F0070088
:1044D000C0F108000544680707D0502080F3118818
:1044E000BFF34F8FBFF36F8FFEE72DB37068854228
:1044F00037D82348183001460C6801E020460C46A6
:104500006168A94202D221680029F7D131688C4242
:1045100027D007682168016060680837411B1029AF
:104520000FD96019420708D0502080F31188BFF3DB
:104530004F8FBFF36F8FFEE713E041606560FFF7B9
:10454000A9FD61687068401A7060B268904200D23C
:10455000B060706901430020C4E90001F068401CAC
:10456000F06001F049F9780707D0502080F31188F6
:10457000BFF34F8FBFF36F8FFEE73846BDE8F08182
:104580008000002010B5031F4FF080741C601B1FBB
:1045900021F001011960191F024B0B6014394038DA
:1045A0000A6010BDF14300087CB50646002000906B
:1045B0008DF800608DF8011014460D4601908DF8BD
:1045C0000220012269460648FCF7EEFE08B1FBF71F
:1045D000BBFE23462A46314602A0FFF74FF87CBDBA
:1045E000C8080020E8AEBEE7BDAEE997B9E9929FE2
:1045F000E697B6E997B4E4B8BAEFBC9A25303258DA
:104600003A253032583A253032580A004FF4FA64CD
:10461000034800F073FB204600F0ACFAF8E7000016
:10462000745C00204FF47A7403A0FFF727F820464B
:1046300000F0A0FAF8E700007461736B31E8BF90F6
:10464000E8A18C2E2E2E2E0D0A0000004FF47A7455
:1046500003A0FFF713F8204600F08CFAF8E70000FB
:104660007461736B32E8BF90E8A18C2E2E2E2E0D54
:104670000A00000088B00020FEF764FB4FF4FA60E7
:10468000FBF764FE654D64485922686001211220E1
:10469000FFF78AFFA94605F1080ADFF884B1614DEA
:1046A000614F00244FF6FF784FF47A70FFF7CCFA91
:1046B0005A49002208315D48FCF774FD0022574931
:1046C0005A48FCF796FD9AF8021000919AF80320D8
:1046D0009AF8013056A102A802F5FA62FEF7DEFF51
:1046E000CDE9004B5E46434602AA05210020FEF7B5
:1046F00085FAD9F8040041680091438802881021A6
:104700000020FEF733FA4EA102A8FEF7C7FF43468A
:1047100002AA1A213220CDE90045FEF76FFACDE951
:104720000046434647A21A214620FEF767FA46A1F3
:1047300002A8FEF7B3FF434602AA2E213220CDE99C
:104740000045FEF75BFACDE9004643463FA22E2125
:104750004620FEF753FA3EA102A8FEF79FFF43460C
:1047600002AA1A215520CDE90045FEF747FACDE906
:104770000046434633A21A216920FEF73FFA35A1CD
:1047800002A8FEF78BFF434602AA2E215520CDE951
:104790000045FEF733FACDE9004643462BA22E2111
:1047A0006920FEF72BFA1D4E2BA102A83278FEF7E6
:1047B00075FFCDE90047434602AA46210020FEF7D7
:1047C00042FA434626A252211E20CDE90045FEF7BB
:1047D00015FA727820A102A8FEF760FFCDE9004724
:1047E000434602AA46212820FEF72DFA43461CA282
:1047F00052214620CDE90045FEF700FAB27816A115
:1048000002A8FEF74BFFCDE90047434602AA462126
:104810005020FEF718FA47E788980008AC000020FF
:10482000108600081886000820860008C8080020A6
:10483000253032642F253032642F25303264000059
:104840003235000043000000363000002500000033
:104850003236000036360000253032640000000099
:104860003A000000D0E9013201699A60D0E90123E1
:104870005A604A68824201D182684A60002202611D
:104880000868401E08600868704700002DE9F0477E
:1048900017460A4605460024072600F06DFBDFF8A0
:1048A0008C80D8F8080082423BD3DFF88490761ED3
:1048B00006EB860104EBC40009EB810105EB8000E7
:1048C0000122FFF737FC0444002EF0D104EBC400B2
:1048D00005EB800002224646D8F83410FFF72AFC88
:1048E000044404EBC40005EB80000222B16BFFF727
:1048F00021FC04440E4904EBC40005EB80000422B3
:10490000C831FFF717FC0444094904EBC40005EB68
:1049100080000322DC31FFF70DFC04440FB10020BE
:10492000386000F069FF2046BDE8F08730000020C5
:10493000940A0020034B036003F15C0008608020B0
:1049400010607047BC010020044B036003F15C0061
:1049500008604FF480701060704700001804002059
:1049600000F108014FF0FF32C0E90112C16001619E
:1049700000210160704700210161704730B50B686C
:104980005A1C02D000F1080202E0026904E022464B
:10499000546825689D42FAD953684B6099608A60D3
:1049A000516008610168491C016030BD42684A607D
:1049B00093688B6093685960916008610168491C35
:1049C00001607047502080F31188BFF34F8FBFF311
:1049D0006F8F0A494868401C486001280CD108487C
:1049E000006810F0FF0F07D0502080F31188BFF34C
:1049F0004F8FBFF36F8FFEE770470000A0000020CD
:104A000004ED00E00849486828B1401E486001D123
:104A100080F311887047502080F31188BFF34F8FC7
:104A2000BFF36F8FFEE70000A000002070B50028E4
:104A30002AD0164DA0F1080460686969084207D1C0
:104A4000502080F31188BFF34F8FBFF36F8FFEE7C5
:104A500022683AB1502080F31188BFF34F8FBFF323
:104A60006F8FFEE78843606000F086FA60686968CF
:104A7000084468602046FFF70DFB2869401C286148
:104A8000BDE8704000F0B8BE70BD0000800000209E
:104A90004FF0E02000210161816105494FF47A72F5
:104AA0000968B1FBF2F1491E4161072101617047BC
:104AB0002C00002010B5FBF78FFB114910280ED3F6
:104AC00000F1E02090F8F0030A78904207D25020DD
:104AD00080F31188BFF34F8FBFF36F8FFEE7094854
:104AE0000068896800F4E060884207D9502080F3AC
:104AF0001188BFF34F8FBFF36F8FFEE710BD00002B
:104B0000A00000200CED00E010B5084B002200BF13
:104B100053F832401CB1521C082AF9D310BD43F897
:104B2000321003EBC201486010BD0000540A00209F
:104B300070B515460E460446FFF744FF94F944103D
:104B40000020491C01D184F8440094F94510491C07
:104B500001D184F84500FFF755FFA06B28B92A461C
:104B6000314604F1240000F049F92046BDE87040C8
:104B7000FFF764BC10B5020014D00F48006B38B1C9
:104B8000502080F31188BFF34F8FBFF36F8FFEE784
:104B900000F0F2F900211046FFF78CF800F02CFE2F
:104BA000002807D105494FF080500860BFF34F8FB0
:104BB000BFF36F8F10BD00003000002004ED00E057
:104BC00070B50546FFF7FEFE254C05B92568281D82
:104BD000FFF748FE58B9E86A224A00EB800152F814
:104BE000211021B901218140206988432061A86AF0
:104BF00018B105F11800FFF735FE606A401C6062CD
:104C00002068854208D11748291DC830FFF7CEFE1D
:104C10006068401C606007E0A068401EA0602846F5
:104C2000FFF75DF9FFF78AFBFFF7ECFE60690028EC
:104C300014D02068854211D1206B38B1502080F308
:104C40001188BFF34F8FBFF36F8FFEE706494FF018
:104C500080500860BFF34F8FBFF36F8F70BD0000AF
:104C600030000020940A002004ED00E02DE9F0411E
:104C70000C461D491646B0B14FEA000505F1340057
:104C8000C4E90050E86A2061286BE061686CA060AC
:104C90000027E86CC4E90507052B12D00868854297
:104CA00003D1277311E00D68E8E72373032B0CD1C0
:104CB00000F062F9A86A08B10220207300F09CFDA0
:104CC00003E02846FEF74EFF20735EB10021286BFB
:104CD00001E0401C491C0278A52AFAD088082084EB
:104CE000BDE8F0812784FBE73000002002490A6A12
:104CF0000260C96841607047300000202DE9FC4720
:104D00004FF00009044680F80090284885688068C4
:104D100000EBC0008000FFF7C7FB070044D0002273
:104D20002946FFF7B3FD8046002536E005EBC500B8
:104D300007EB8006307B052817D2DFE800F003057B
:104D400010121400582000E052208246204671685C
:104D5000FBF793FA2046FBF789FA202109E042206D
:104D6000F3E75320F1E74420EFE70020EDE721547B
:104D7000401C0F28FBD304F800900444B168308C29
:104D8000CDE9000152460AA120463369FEF786FCB0
:104D90002046FBF76BFA04446D1C4545C6D33846E4
:104DA000BDE8FC47FFF742BEBDE8FC8730000020AD
:104DB0000925630925750925750925750D0A000062
:104DC00001490120C86170473000002010B50C4631
:104DD00050B1094909681831FFF7D0FD2046BDE8F8
:104DE00010400121FEF766BF502080F31188BFF309
:104DF0004F8FBFF36F8FFEE73000002070B5144671
:104E00000D4668B10A4909681831FFF7CFFD0CB1AA
:104E10004FF0FF3521462846BDE87040FEF74ABFF7
:104E2000502080F31188BFF34F8FBFF36F8FFEE7E1
:104E30003000002030B587B00024039405AA04A9EF
:104E400003A80494FFF776FDDDE903010094CDE9A2
:104E50000110002315A11748059A00F0A2FB164D7A
:104E60000028E8621FD000F029FD012809D0401C6D
:104E700019D1502080F31188BFF34F8FBFF36F8F8C
:104E8000FEE7502080F31188BFF34F8FBFF36F8F81
:104E90004FF0FF30A86201206861EC6007B0BDE808
:104EA000304000F09FB807B030BD000049444C4589
:104EB00000000000613F00083000002070B504468B
:104EC000FFF780FD294D04B92C68201DFFF7CAFCAF
:104ED00058B9E06A264A00EB800152F8211021B946
:104EE00001218140286988432861A06A18B104F132
:104EF0001800FFF7B7FC1E48211DDC30FFF756FDF8
:104F000094F858000026012801D184F85860FFF772
:104F100079FD686928B1FFF755FDFFF70FFAFFF734
:104F200071FD2868844213D1686990B1286B38B14B
:104F3000502080F31188BFF34F8FBFF36F8FFEE7D0
:104F40000C494FF080500860BFF34F8FBFF36F8F55
:104F500070BD0748DC300068A968884201D12E6026
:104F600070BDBDE8704000F00FB8000030000020B8
:104F7000940A002004ED00E00248016B491C016323
:104F800070470000300000201448016B11B101216E
:104F9000C16170470021C1610169B1FA81F1C1F1BC
:104FA0001F0101EB81020E4951F822306BB101EB78
:104FB000820101F108034A6852684A609A4201D1AD
:104FC00052684A60D16801607047502080F31188B0
:104FD000BFF34F8FBFF36F8FFEE70000300000205C
:104FE000940A00201CB5264908780190FF2008701B
:104FF00008788DF800009DF800009DF8002000F072
:10500000F000904207D0502080F31188BFF34F8FFB
:10501000BFF36F8FFEE79DF800001A4C00F05000C0
:1050200020700720A06005E09DF8002052008DF858
:105030000020401E9DF800201206F5D4A060032831
:1050400007D0502080F31188BFF34F8FBFF36F8FCD
:10505000FEE74FF44070A060019808700A480168AC
:1050600041F470010160016841F070410160FFF797
:105070000FFD00206060FBF779F800201CBD0000E8
:1050800000E400E0A000002020ED00E038B5049D21
:1050900018B153B1CAB181B120E0502080F311881A
:1050A000BFF34F8FBFF36F8FFEE7502080F311885F
:1050B000BFF34F8FBFF36F8FFEE7502080F311884F
:1050C000BFF34F8FBFF36F8FFEE739B1502080F3EE
:1050D0001188BFF34F8FBFF36F8FFEE750241C463C
:1050E000012384F846302B460094FEF769FF2046E2
:1050F00038BD000070B50D46040025D0FFF762FCF6
:10510000D4E90F20216802FB0011A1600021A163F6
:10511000216861600A46D4E90F01401E00FB0121AD
:10512000E16021464FF0FF3001F8440F487004F170
:1051300010008DB1FFF714FC04F12400FFF710FC00
:10514000FFF760FC012070BD502080F31188BFF391
:105150004F8FBFF36F8FFEE721690029F0D000F079
:1051600011FB0028ECD004494FF080500860BFF3D9
:105170004F8FBFF36F8FE3E704ED00E02DE9FF47AA
:1051800082B01D468A464FF00008040003D0BAF1F1
:10519000000F08D011E0502080F31188BFF34F8F2B
:1051A000BFF36F8FFEE7206C38B1502080F3118879
:1051B000BFF34F8FBFF36F8FFEE7022D0AD1E06B75
:1051C000012807D0502080F31188BFF34F8FBFF321
:1051D0006F8FFEE700F010FA3F4F4FF000094FF0DD
:1051E000805648B9049838B1502080F31188BFF335
:1051F0004F8FBFF36F8FFEE7FFF7E4FBA06BE16B10
:10520000884207D3022D05D00498D0B1B8F1000F21
:105210001AD01EE02A4651462046FEF72AFE616A51
:1052200019B104F1240000F0ADFA20B13E60BFF3E3
:105230004F8FBFF36F8FFFF7E5FB012006B0BDE88E
:10524000F087FFF7DFFB22E06846FFF74FFD4FF0E6
:105250000108FFF7D7FBFFF78FFEFFF7B3FB94F9C9
:105260004400401C01D184F8449094F94500401C4E
:1052700001D184F84590FFF7C5FB04A9684600F00A
:1052800029F930B12046FFF7D9F800F0B5FA00202F
:10529000D4E7FFF797FBA06BE16B884213D1FFF7D0
:1052A000B1FB04F110000499FFF790FD2046FFF7D1
:1052B000C5F800F0A1FA00289ED13E60BFF34F8FE1
:1052C000BFF36F8F98E7FFF79DFB2046FFF7B6F817
:1052D00000F092FA90E7000004ED00E02DE9F047BD
:1052E0001F4690468946040003D0B9F1000F08D04C
:1052F00011E0502080F31188BFF34F8FBFF36F8F01
:10530000FEE7206C38B1502080F31188BFF34F8F37
:10531000BFF36F8FFEE7022F0AD1E06B012807D0A1
:10532000502080F31188BFF34F8FBFF36F8FFEE7DC
:10533000FFF7C0FB5020EFF3118680F31188BFF315
:105340004F8FBFF36F8FA06BE16B884206D3022FA4
:1053500004D0002086F31188BDE8F08794F9455009
:10536000A06B3A4649462046FEF783FD681C04D0F0
:105370006D1C84F845500120ECE7606A0028FAD0E3
:1053800004F1240000F0FEF90028F4D0B8F1000F79
:10539000F1D00121C8F80010EDE700002DE9F74732
:1053A000002683B08A46040003D0BAF1000F08D06B
:1053B00011E0502080F31188BFF34F8FBFF36F8F40
:1053C000FEE7206C38B1502080F31188BFF34F8F77
:1053D000BFF36F8FFEE700F00FF9DFF8F4804FF0B6
:1053E00000094FF0805748B9059838B1502080F334
:1053F0001188BFF34F8FBFF36F8FFEE7FFF7E2FA1D
:10540000A56BC5B151462046FEF720FD6D1EA56374
:10541000206950B104F1100000F0B4F928B1C8F8C7
:105420000070BFF34F8FBFF36F8FFFF7EBFA0120D0
:1054300006B0BDE8F087059808B11EB106E0FFF799
:10544000E1FA27E06846FFF751FC0126FFF7DAFA98
:10545000FFF792FDFFF7B6FA94F94400401C01D122
:1054600084F8449094F94500401C01D184F845909B
:10547000FFF7C8FA05A9684600F02CF80028204676
:105480000AD0FEF7DBFF00F0B7F92046FEF744FE36
:105490000028B3D00020CBE7FEF73EFE90B104F128
:1054A00024000599FFF792FC2046FEF7C7FF00F0A5
:1054B000A3F90028A2D1C8F80070BFF34F8FBFF343
:1054C0006F8F9BE72046FEF7B9FF00F095F995E74F
:1054D00004ED00E02DE9F0410C46050011D0C4B107
:1054E000FFF770FA174BDA686E682068911B471C4B
:1054F00017D02F681B6A9F4219D0964217D80124F3
:1055000010E0502080F31188BFF34F8FBFF36F8FEF
:10551000FEE7502080F31188BFF34F8FBFF36F8FEA
:10552000FEE70024FFF76EFA2046BDE8F0818842CE
:1055300005D9401A20602846FFF7D8FBF1E7002084
:105540002060DCE7300000202DE9FF5F8346DDE9C5
:105550000E87994616468A469000FEF7A5FF05007D
:105560001CD05C20FEF7A0FF040014D000202563AF
:1055700084F85900CDE90240CDE900874B46324618
:1055800051465846FEF72EFD2046FEF7CBFB012084
:1055900004B0BDE8F09F2846FFF748FA4FF0FF300F
:1055A000F6E7F0B585B0DDE90B640A9DA6B1DCB184
:1055B0005C2700972663022684F85960002604AF12
:1055C000CDE90246CDE90057FEF70CFD2046FEF777
:1055D000A9FB049805B0F0BD502080F31188BFF3FB
:1055E0004F8FBFF36F8FFEE7502080F31188BFF31A
:1055F0004F8FBFF36F8FFEE70548416919B1006B0C
:1056000018B1002070470120704702207047000049
:10561000300000200148C0687047000030000020C2
:105620002DE9F0412F4C0026206B28B1A069401CC9
:10563000A0613046BDE8F081E5686D1CE56013D1DE
:10564000606B006838B1502080F31188BFF34F8F32
:10565000BFF36F8FFEE7606BA16B6163A063206A8D
:10566000401C2062FEF76AFEA06ADFF87C8085425B
:1056700009D3606B0068A0B1606BC068C7687868C8
:10568000854211D2A0622068C06A00EB800158F800
:105690002100012800D90126E0690028C9D001268F
:1056A000C7E74FF0FF30EDE7381DFFF7DBF8B86ACA
:1056B00018B107F11800FFF7D5F8F96A012022693F
:1056C00088401043206101EB810108EB8100391D06
:1056D000FFF76CF9F86A2168C96A8842C9D30126C4
:1056E000C7E7000030000020940A002070B50400D5
:1056F0004FF0000140D0214D2868844207D050204F
:1057000080F31188BFF34F8FBFF36F8FFEE7206DDB
:1057100038B1401E2065E36CE26A9A422CD040B159
:105720002AE0502080F31188BFF34F8FBFF36F8FB3
:10573000FEE7201DFFF796F8114A012150B9E06AF3
:1057400000EB800352F8233023B92B6901FA00F0F3
:1057500083432B61E06CE062C0F10700A061E06A66
:105760002B6981401943296100EB800002EB800026
:10577000211DFFF71BF90121084670BD30000020F4
:10578000940A00202DE9F041C068C468ACB104F16E
:1057900018000746FFF766F8154D286B0126A0B1E3
:1057A00039461448FFF702F9E06A2968C96A884255
:1057B0001CD90120EE61BDE8F081502080F31188F2
:1057C000BFF34F8FBFF36F8FFEE7201DFFF74AF83F
:1057D000E16A2A6906FA01F01043286101EB8100B1
:1057E0000449B43901EB8000211DDBE70020E2E72A
:1057F00030000020480B00202DE9F0472C4D0024FC
:105800002746286B38B1FFF7DDF8286B401E286368
:10581000286B40B146E0502080F31188BFF34F8FD2
:10582000BFF36F8FFEE7A968224E0120D1B3A6F126
:10583000B40980463068E8B1F068C46804F1180023
:10584000FFF710F8201DFFF70DF8E06A2A6908FA43
:1058500000F11143296100EB800109EB8100211D5A
:10586000FFF7A4F8E06A2968C96A8842E2D3C5F85C
:105870001C80DFE70CB1FEF761FDAC6944B1464620
:10588000FFF7CEFE00B1EE61641EF9D10020A861E1
:10589000E86938B10849012738070860BFF34F8F1E
:1058A000BFF36F8FFFF7AEF83846BDE8F087000012
:1058B00030000020480B002004ED00E010B586B059
:1058C000FEF798FA114C2068B8B1002003900490BC
:1058D00005AA04A903A8FFF737F8DDE90321022090
:1058E0008DE8070000230AA10B48059AFFF759FE2F
:1058F000606010B106B0012010BD502080F3118807
:10590000BFF34F8FBFF36F8FFEE700006C000020E6
:10591000546D72205376630019440008FEB51E468C
:1059200013460200089D4FF0000014D0124C276867
:10593000002F0FD0CDE900130292062915DAFFF7E8
:105940005BFE02284FF000030DD00022694620685C
:10595000FFF714FCFEBD502080F31188BFF34F8F7A
:10596000BFF36F8FFEE72A46F0E700233246694611
:105970003846FFF7B3FCFEBD6C00002000000000BD
:105980000000000000000000000000000000000017
:105990000000000000000000000000000000000007
:1059A00000000000001000000010000000100000C7
:1059B00000100000001000000010000000000000B7
:1059C000001000000000000000000000002800009F
:1059D0000028000000280000000000000000000077
:1059E00000000000000000000000000000000000B7
:1059F000000000000024000000240000007C0000E3
:105A00000024000000480000007C00000048000066
:105A10000048000000000000000000000038000006
:105A20000054000000500000003800000014000086
:105A30000054000000540000003800000010000076
:105A4000000000000020000000540000005800008A
:105A50000030000000280000005400000014000086
:105A6000000800000000000000000000001000001E
:105A70000028000000280000001000000034000092
:105A80000048000000480000003400000000000052
:105A900000000000001000000010000000100000D6
:105AA00000000000000000000000000000000000F6
:105AB00000000000000000000000000000080000DE
:105AC0000010000000200000002000000020000066
:105AD0000020000000200000002000000010000056
